:100000000C94B5000C94D2000C94D2000C94D20045
:100010000C94D2000C94D2000C94D2000C94D20018
:100020000C94D2000C94D2000C94D2000C94D20008
:100030000C94D2000C94D2000C94D2000C94D200F8
:100040000C94D2000C94D2000C94D2000C94D200E8
:100050000C94D2000C94D2000C94D2000C94D200D8
:100060000C94D2000C94D2006E616E00696E660032
:1000700000407A10F35A00A0724E18090010A5D45F
:10008000E80000E87648170000E40B54020000CABC
:100090009A3B000000E1F505000080969800000002
:1000A00040420F000000A086010000001027000061
:1000B0000000E803000000006400000000000A00E7
:1000C000000000000100000000002C76D888DC67EA
:1000D0004F0823DFC1DFAE59E1B1B796E5E3E45342
:1000E000C63AE651997696E8E6C28426EB898C9B5F
:1000F00062ED407C6FFCEFBC9C9F40F2BAA56FA5FF
:10010000F490055A2AF75C936B6CF9676DC11BFC80
:10011000E0E40D47FEF520E6B500D0ED902E03009B
:10012000943577050080841E080000204E0A0000E8
:1001300000C80C333333330F986E12831141EF8DA7
:100140002114893BE65516CFFEE6DB18D1844B38E7
:100150001BF77C1D901DA4BBE424203284725E2218
:100160008100C9F124ECA1E53D2711241FBECFEF8A
:10017000D8E0DEBFCDBF11E0A0E0B1E0ECE1F6E1F8
:1001800002C005900D92A634B107D9F721E0A6E48C
:10019000B1E001C01D92A335B207E1F70E947C06D1
:1001A0000C940C0B0C940000A0E1B0E0EAEDF0E040
:1001B0000C9407097C011B016A01FC01178216825D
:1001C000838181FF44C39E012F5F3F4F3901F701B7
:1001D0009381F10193FD859193FF81911F01882304
:1001E00009F431C3853239F493FD859193FF8191F0
:1001F0001F01853239F4B70190E00E943E0A560192
:100200006501E5CF10E0512C912CFFE1F915D8F0F4
:100210008B3279F038F4803279F08332A1F4F92D01
:10022000F0612EC08D3261F0803369F4292D216098
:100230002DC0392D3260932E892D8460982E2AC0CE
:10024000E92DE86015C097FC2DC020ED280F2A305D
:1002500088F496FE06C03AE0139F200D1124122F59
:1002600019C08AE0589E200D1124522EE92DE0621B
:100270009E2E10C08E3231F496FCE5C2F92DF0644A
:100280009F2E08C08C3621F4292D2068922E02C0A2
:10029000883641F4F10193FD859193FF81911F010F
:1002A0008111B3CF9BEB980F933020F4992D90617F
:1002B000805E07C09BE9980F933008F066C1992DC6
:1002C0009F7E96FF16E09F73992E853619F49064F1
:1002D000992E08C0863621F4392F3068932E02C03B
:1002E0001111115097FE07C01C3350F4442443945D
:1002F000410E27E00BC0183038F027E017E005C0AA
:1003000027E09CE3492E02C0212F412C560184E0B6
:10031000A80EB11CF6016081718182819381042D48
:10032000A3010E943E096C01F981FC87F0FF02C025
:10033000F3FF06C091FC06C092FE06C000E205C0B5
:100340000DE203C00BE201C000E08C858C7019F057
:1003500001115AC29BC297FE10C04C0CFC85F4FFE1
:1003600004C08A81813309F44A94141474F528E096
:10037000241578F588E0482E2CC096FC2AC0812FE1
:1003800090E08C159D059CF03CEFC3163FEFD30623
:1003900074F0892D8068982E0AC0E2E0F0E0EC0F3E
:1003A000FD1FE10FF11D8081803319F411501111EF
:1003B000F4CF97FE0EC044244394410E812F90E069
:1003C000C816D9062CF41C1904C04424439401C057
:1003D00010E097FE06C01C141D0434F4C6010196FB
:1003E00005C085E090E002C081E090E00111019637
:1003F000112331F0212F30E02F5F3F4F820F931FE9
:10040000252D30E08217930714F4581A01C0512C9F
:10041000892D897049F4552039F0B70180E290E0C8
:100420000E943E0A5A94F7CF002329F0B701802F8B
:1004300090E00E943E0A93FC09C0552039F0B701B4
:1004400080E390E00E943E0A5A94F7CF97FE4CC09A
:100450004601D7FE02C0812C912CC601881999094A
:10046000F301E80FF91FFE87ED8796012419310982
:10047000388B2F87012F10E01195019511093FEF5F
:100480008316930629F4B7018EE290E00E943E0A9B
:10049000C814D9044CF08F8598898815990524F4DF
:1004A000ED85FE85818101C080E3F1E08F1A91081E
:1004B0002D853E852F5F3F4F3E872D878016910605
:1004C0002CF0B70190E00E943E0AD9CFC814D9049D
:1004D00041F49A81963320F4953319F43C8534FF26
:1004E00081E3B70190E04EC08A81813319F09C8589
:1004F0009F7E9C87B70190E00E943E0A111105C0C3
:1005000094FC18C085E690E017C0B7018EE290E039
:100510000E943E0A1E5F82E001E0080FF301E80F2F
:10052000F11D8081B70190E00E943E0A802F0113E7
:10053000F3CFE6CF85E490E0B7010E943E0AD7FCF6
:1005400006C0C114D10441F4EC85E4FF05C0D19488
:10055000C194D1088DE201C08BE2B70190E00E9406
:100560003E0A80E32AE0C216D1042CF08F5FFAE045
:10057000CF1AD108F7CFB70190E00E943E0AB70129
:10058000C601C0960E943E0A54C1833631F08337BB
:1005900079F0833509F056C020C0560132E0A30E31
:1005A000B11CF6018081898301E010E0630112C073
:1005B0005601F2E0AF0EB11CF601C080D18096FE6C
:1005C00003C0612F70E002C06FEF7FEFC6010E9491
:1005D000210A8C01F92DFF7714C0560122E0A20EEA
:1005E000B11CF601C080D18096FE03C0612F70E07F
:1005F00002C06FEF7FEFC6010E94160A8C01F92D31
:10060000F0689F2EF3FD1AC0852D90E0081719079A
:10061000A8F4B70180E290E00E943E0A5A94F4CF19
:10062000F60197FC859197FE81916F01B70190E0EB
:100630000E943E0A51105A940150110901151105EA
:1006400079F7F7C0843611F0893661F5560197FEC7
:1006500009C024E0A20EB11CF60160817181828183
:1006600093810AC0F2E0AF0EB11CF6016081718186
:10067000072E000C880B990BF92DFF769F2E97FF04
:1006800009C090958095709561957F4F8F4F9F4FD2
:10069000F0689F2E2AE030E0A3010E94AE0AC82E27
:1006A000C6183FC0092D853721F40F7E2AE030E0BF
:1006B0001DC0097F8F3691F018F4883559F0C3C0FA
:1006C000803719F0883711F0BEC0006104FF09C0FF
:1006D000046007C094FE08C0066006C028E030E051
:1006E00005C020E130E002C020E132E0560107FF02
:1006F00009C084E0A80EB11CF6016081718182817D
:10070000938108C0F2E0AF0EB11CF60160817181E7
:1007100080E090E0A3010E94AE0AC82EC6180F77B1
:10072000902E96FE0BC0092D0E7FC11650F494FE3C
:100730000AC092FC08C0092D0E7E05C0DC2C092DD4
:1007400003C0DC2C01C0D12E04FF0DC0FE01EC0D56
:10075000F11D8081803311F4097E09C002FF06C0BB
:10076000D394D39404C0802F867809F0D39403FDEA
:1007700011C000FF06C01C2DD51480F4150D1D19E5
:100780000DC0D51458F4B70180E290E00E943E0AF3
:10079000D394F7CFD51410F45D1801C0512C04FF89
:1007A00010C0B70180E390E00E943E0A02FF17C02C
:1007B00001FD03C088E790E002C088E590E0B70142
:1007C0000CC0802F867859F001FF02C08BE201C077
:1007D00080E207FD8DE2B70190E00E943E0AC1165B
:1007E00038F4B70180E390E00E943E0A1150F7CF41
:1007F000CA94F301EC0DF11D8081B70190E00E94D5
:100800003E0AC110F5CF15C0F4E0F51560F584E09F
:10081000581A93FE1FC0011127C02C8523FF2AC040
:1008200008E610E0392D3071932EF8018491811182
:1008300024C0552009F4E4CCB70180E290E00E9486
:100840003E0A5A94F6CFF7018681978126C08FEF32
:100850009FEF23C0B70180E290E00E943E0A5A94C5
:100860005110F8CFD8CF512CB701802F90E00E94C3
:100870003E0AD3CF0CE610E0D5CF91108052B701DD
:1008800090E00E943E0A0F5F1F4FCFCF23E0251557
:1008900010F483E0BDCF512CC0CF6096E2E10C9400
:1008A0002309ECE7F0E01082808180648083EAE72E
:1008B000F0E0808180648083808184FFFDCFEAE75F
:1008C000F0E0808180618083609178007091790090
:1008D00080E090E00E94E30720E030E040EA50E44E
:1008E0000E949A0820E030E048EC52E40E949A0806
:1008F00020E030E040E85AE30E949A080895ECE7CF
:10090000F0E0108288EC8083EAE7F0E08081806488
:100910008083808184FFFDCFEAE7F0E08081806101
:100920008083609178007091790080E090E00E946F
:10093000E30720E030E044E352E40E9471070895A9
:100940008091490180FD75C020E030E040E85FE320
:1009500060914B0170914C0180914D0190914E013D
:100960000E94720720910001309101014091020123
:10097000509103010E94DE078823BCF481E090E0DF
:100980009093480180934701289A8091490180FF04
:100990000CC04FC081E090E09093480180934701E4
:1009A000289A8091490180FD24C020E030E040E891
:1009B0005FE360914B0170914C0180914D019091EA
:1009C0004E010E9471072091000130910101409178
:1009D0000201509103010E94950818160CF045C0C1
:1009E000109248011092470128988091490180FF98
:1009F0003CC020E030E040E85FE360914F0170913F
:100A0000500180915101909152010E9471072091F3
:100A100000013091010140910201509103010E94B7
:100A20009508181614F5109248011092470128985D
:100A3000089520E030E040E85FE360914F0170915D
:100A4000500180915101909152010E9472072091B2
:100A500000013091010140910201509103010E9477
:100A6000DE0788230CF496CFC4CF0895CF92DF928F
:100A7000EF92FF92339924C0339BFECFC0900001C8
:100A8000D0900101E0900201F090030120E030E0FD
:100A900040E052E4C701B6010E94DE07882384F4D7
:100AA00020E030E040E85FE3C701B6010E94720732
:100AB0006093000170930101809302019093030100
:100AC000349924C0349BFECFC0900001D090010126
:100AD000E0900201F090030120E030E040EA50E4B1
:100AE000C701B6010E949508181684F420E030E092
:100AF00040E85FE3C701B6010E94710760930001FF
:100B000070930101809302019093030135990BC00A
:100B1000359BFECF8091490190914A0101969093B7
:100B20004A0180934901FF90EF90DF90CF900895A4
:100B3000CF93DF938091490180FD55C08091520190
:100B40008F93809151018F93809150018F93809169
:100B50004F018F9383E291E09F938F93C4E0D1E0A4
:100B6000DF93CF930E942C0ABE0183E490E00E94A1
:100B70003E0A80914E018F9380914D018F93809119
:100B80004C018F9380914B018F9382E191E09F9371
:100B90008F93DF93CF930E942C0A9E0143E050E095
:100BA00061E070E08CE191E00E947A0A809103019B
:100BB0008F93809102018F93809101018F93809197
:100BC00000018F9380E291E09F938F93DF93CF9307
:100BD0000E942C0A8DB79EB748960FB6F8949EBF18
:100BE0000FBE8DBF54C0809152018F9380915101EF
:100BF0008F93809150018F9380914F018F9383E267
:100C000091E09F938F93C4E0D1E0DF93CF930E9454
:100C10002C0ABE0183E490E00E943E0A80914E01BE
:100C20008F9380914D018F9380914C018F93809190
:100C30004B018F938AE291E09F938F93DF93CF9341
:100C40000E942C0A9E0143E050E061E070E08CE1DC
:100C500091E00E947A0A809103018F9380910201B2
:100C60008F93809101018F93809100018F9380E297
:100C700091E09F938F93DF93CF930E942C0A8DB7BF
:100C80009EB748960FB6F8949EBF0FBE8DBF809159
:100C900047019091480181309105A9F424E031E0A9
:100CA00046E050E061E070E084E391E00E947A0A5F
:100CB00024E031E042E050E061E070E08BE391E05D
:100CC0000E947A0A16C0892BA1F424E031E046E0A4
:100CD00050E061E070E08EE391E00E947A0A24E047
:100CE00031E042E050E061E070E08BE391E00E948F
:100CF0007A0ADF91CF910895209A3B983C983D98CD
:100D0000439A449A459AEAE7F0E0808183608083C1
:100D1000808180688083EEE7F0E08081816080835D
:100D20000E94AD060E947F0460934F0170935001B2
:100D300080935101909352010E94510460934B01A2
:100D400070934C0180934D0190934E010E94A0043A
:100D50000E9498050E943605E5CF0E94350760E0A5
:100D600081E00E94100781E00E942F0760E086E08A
:100D70000E94100780E00E942F0760E08EE00E9432
:100D8000100780E00E942F070895CF93C82F80910D
:100D9000460181110EC0CB3121F481E080934601E0
:100DA00016C080E00E942F0761E08C2F0E94100780
:100DB0000EC080E00E942F0760E08C2F0E94100779
:100DC000C43018F481E00E942F071092460180E0A1
:100DD00090E0CF9108955998662311F0589A01C078
:100DE00058982BB12F7030E1839FC0011124822BC2
:100DF0008BB95A9A5A980895599A9AB19F709AB98C
:100E0000882311F0589A01C058985A9A000089B165
:100E10005A989AB1906F9AB9599882958F7008959F
:100E2000CF93DF93C82FD62F82958F700E94EB0649
:100E30006D2F8C2F8F700E94EB06DF91CF9108955C
:100E4000CF93DF93C82F0E94FC06D82FD295D07F76
:100E50008C2F0E94FC068D2BDF91CF91089580E0AE
:100E60000E9420078823DCF30895509A519A529AE1
:100E70008AB1806F8AB985EA9EE00197F1F700C0D8
:100E8000000060E083E00E94EB0680E094E00197C0
:100E9000F1F700C0000060E083E00E94EB0691E201
:100EA0009A95F1F7000060E083E00E94EB068CE089
:100EB0008A95F1F7000060E082E00E94EB0680E096
:100EC0000E942F0760E088E20E94100780E00E94E5
:100ED0002F0760E088E00E94100780E00E942F0743
:100EE00008955058BB27AA270E9489070C945B08D5
:100EF0000E944D0838F00E94540820F039F49F3FBA
:100F000019F426F40C944A080EF4E095E7FB0C94CF
:100F10004408E92F0E946C0858F3BA176207730758
:100F20008407950720F079F4A6F50C948E080EF44A
:100F3000E0950B2EBA2FA02D0B01B90190010C01E9
:100F4000CA01A0011124FF27591B99F0593F50F401
:100F5000503E68F11A16F040A22F232F342F442759
:100F6000585FF3CF469537952795A795F040539551
:100F7000C9F77EF41F16BA0B620B730B840BBAF021
:100F80009150A1F0FF0FBB1F661F771F881FC2F78C
:100F90000EC0BA0F621F731F841F48F487957795A0
:100FA0006795B795F7959E3F08F0B0CF9395880F5A
:100FB00008F09927EE0F9795879508950E942008CD
:100FC00008F481E00895E89409C097FB3EF49095F9
:100FD0008095709561957F4F8F4F9F4F9923A9F012
:100FE000F92F96E9BB279395F695879577956795A1
:100FF000B795F111F8CFFAF4BB0F11F460FF1BC0E5
:101000006F5F7F4F8F4F9F4F16C0882311F096E977
:1010100011C0772321F09EE8872F762F05C0662325
:1010200071F096E8862F70E060E02AF09A95660FDE
:10103000771F881FDAF7880F9695879597F9089597
:10104000990F0008550FAA0BE0E8FEEF16161706D9
:10105000E807F907C0F012161306E407F50798F041
:10106000621B730B840B950B39F40A2661F0232B5A
:10107000242B252B21F408950A2609F4A140A695D6
:101080008FEF811D811D089597F99F6780E870E0BB
:1010900060E008959FEF80EC089500240A941616EE
:1010A000170618060906089500240A941216130656
:1010B000140605060895092E0394000C11F48823E4
:1010C00052F0BB0F40F4BF2B11F460FF04C06F5F00
:1010D0007F4F8F4F9F4F089557FD9058440F551FD6
:1010E00059F05F3F71F04795880F97FB991F61F0AA
:1010F0009F3F79F087950895121613061406551F21
:10110000F2CF4695F1DF08C0161617061806991F8C
:10111000F1CF86957105610508940895E894BB2781
:1011200066277727CB0197F908950E94200808F4D5
:101130008FEF08950E94AD080C945B080E944D0843
:1011400038F00E94540820F0952311F00C944408C4
:101150000C944A0811240C948F080E946C0870F3B8
:10116000959FC1F3950F50E0551F629FF001729F4C
:10117000BB27F00DB11D639FAA27F00DB11DAA1F5B
:10118000649F6627B00DA11D661F829F2227B00DA8
:10119000A11D621F739FB00DA11D621F839FA00D33
:1011A000611D221F749F3327A00D611D231F849F83
:1011B000600D211D822F762F6A2F11249F575040DA
:1011C0009AF0F1F088234AF0EE0FFF1FBB1F661F55
:1011D000771F881F91505040A9F79E3F510580F01E
:1011E0000C9444080C948F085F3FE4F3983ED4F3CA
:1011F000869577956795B795F795E7959F5FC1F7C2
:10120000FE2B880F911D9695879597F908952F923B
:101210003F924F925F926F927F928F929F92AF9286
:10122000BF92CF92DF92EF92FF920F931F93CF93D3
:10123000DF93CDB7DEB7CA1BDB0B0FB6F894DEBF6A
:101240000FBECDBF09942A88398848885F846E8490
:101250007D848C849B84AA84B984C884DF80EE80DA
:10126000FD800C811B81AA81B981CE0FD11D0FB6E3
:10127000F894DEBF0FBECDBFED010895283008F011
:1012800027E03327DA01990F311D87FD9160009621
:101290006105710539F432602E5F3D9330E32A9584
:1012A000E1F708959F3F30F080387105610509F03E
:1012B0003C5F3C5F3D93913008F08068911DDF9367
:1012C000CF931F930F93FF92EF92192F987F9695CC
:1012D000E92F96959695E90FFF27E653FF4F99273B
:1012E0003327EE24FF24A701E70105900894079413
:1012F00028F4360FE71EF81E491F511D660F771F91
:10130000881F991F0694A1F70590079428F4E70E0B
:10131000F81E491F561FC11D770F881F991F661F92
:101320000694A1F70590079428F4F80E491F561F5C
:10133000C71FD11D880F991F661F771F0694A1F73D
:101340000590079420F4490F561FC71FD81F990F07
:10135000661F771F881F0694A9F784911095177050
:1013600041F0D695C79557954795F794E7941A9508
:10137000C1F7E0E7F0E0689415901591359165911B
:10138000959105907FE27395E118F10A430B560B96
:10139000C90BD009C0F7E10CF11E431F561FC91F2E
:1013A000D01D7EF4703311F48A95E6CFE894015095
:1013B00030F0080F0AF40027021708F4202F2395B5
:1013C000022F7A3328F079E37D932A95E9F710C04C
:1013D0007D932A9589F60694979567953795179585
:1013E0001794E118F10A430B560BC90BD00998F07A
:1013F00023957E9173957A3308F070E37C932013E4
:10140000B8F77E9170617D9330F0839571E37D93A1
:1014100070E32A95E1F71124EF90FF900F911F914F
:10142000CF91DF91992787FD90950895FC01059054
:10143000615070400110D8F7809590958E0F9F1FD6
:101440000895FC016150704001900110D8F780951B
:1014500090958E0F9F1F0895A0E0B0E0E2E3FAE0C0
:101460000C941709AE01475F5F4F6F8178858D81BE
:101470009E810E94D400E2E00C9433090F931F93E5
:10148000CF93DF93FB01238121FD03C08FEF9FEFFB
:101490002CC022FF16C04681578124813581421716
:1014A000530744F4A081B1819D012F5F3F4F3183E9
:1014B00020838C93268137812F5F3F4F378326838C
:1014C00014C08B01EC01FB010084F185E02D09952E
:1014D000892BE1F6D80116968D919C91179701966C
:1014E00017969C938E931697CE01DF91CF911F9103
:1014F0000F910895A0E0B0E0E0E8FAE00C940D0947
:101500005B014A017901D90113962C9121FF1DC07D
:10151000C0E0D0E0C815D905D9F08C016C01CA0C27
:10152000DB1CC8010C151D0571F00F5F1F4FD701A3
:101530001896ED91FC911997B701DC018C910995F2
:10154000892B79F305C02196E5CF80E090E001C0BA
:10155000CE01CDB7DEB7ECE00C942909FA01AA2739
:10156000283051F1203181F1E8946F936E7F6E5FE6
:101570007F4F8F4F9F4FAF4FB1E03ED0B4E03CD094
:10158000670F781F891F9A1FA11D680F791F8A1F77
:10159000911DA11D6A0F711D811D911DA11D20D0DE
:1015A00009F468943F912AE0269F11243019305D98
:1015B0003193DEF6CF010895462F4770405D419389
:1015C000B3E00FD0C9F7F6CF462F4F70405D4A33D6
:1015D00018F0495D31FD4052419302D0A9F7EACF9E
:1015E000B4E0A6959795879577956795BA95C9F7CD
:1015F00000976105710508959B01AC010A2E0694C0
:101600005795479537952795BA95C9F7620F731F78
:0C161000841F951FA01D0895F894FFCFC3
:10161C000000B0410000000200000000C506000000
:10162C0000002D2D3E25332E3166DF00431BC000FC
:10163C0020202025332E3166DF003C2D2D25332E26
:10164C003166DF00432020204F4E001B80004320DA
:06165C00204F464600008D
:00000001FF
